:020000040800F2
:1000000000000220CD1C0008CD0E0008CF0E000815
:10001000D10E0008D30E0008D50E00080000000025
:10002000000000000000000000000000D70E0008E3
:10003000D90E000800000000DB0E0008DD0E0008ED
:100040001D1D00081D1D00081D1D00081D1D0008A8
:100050001D1D00081D1D00081D1D00081D1D000898
:100060001D1D00081D1D00081D1D00081D1D000888
:100070001D1D00081D1D00081D1D00081D1D000878
:100080001D1D00081D1D00081D1D00081D1D000868
:100090001D1D00081D1D00081D1D00081D1D000858
:1000A0001D1D00081D1D00081D1D00081D1D000848
:1000B0001D1D00081D1D00081D1D00081D1D000838
:1000C0001D1D00081D1D00081D1D00081D1D000828
:1000D0001D1D00081D1D00081D1D00081D1D000818
:1000E0001D1D00081D1D00081D1D00081D1D000808
:1000F0001D1D00081D1D00081D1D00081D1D0008F8
:100100001D1D00081D1D00081D1D00081D1D0008E7
:100110001D1D00081D1D00081D1D00081D1D0008D7
:100120001D1D00081D1D00081D1D00081D1D0008C7
:100130001D1D00081D1D00081D1D00081D1D0008B7
:100140001D1D00081D1D00081D1D00081D1D0008A7
:100150001D1D00081D1D00081D1D00081D1D000897
:100160001D1D00081D1D00081D1D00081D1D000887
:100170001D1D00081D1D00081D1D000800000000B9
:080180001D1D00081D1D0008F3
:1001900010B5054C237833B9044B13B10448AFF3C1
:1001A00000800123237010BD7000002000000000BB
:1001B0003C2C000808B5034B1BB103490348AFF3BF
:1001C000008008BD00000000740000203C2C0008E6
:1001D00001F0FF01102A2BDB10F0070F08D010F8F8
:1001E000013B013A8B422DD010F0070F42B3F6D1FC
:1001F000F0B441EA012141EA014122F007047FF015
:1002000000070023F0E80256083C85EA010586EA6B
:10021000010685FA47F5A3FA87F586FA47F6A5FAA7
:1002200087F68EB9EED1F0BC01F0FF0102F00702B3
:1002300032B110F8013B013A83EA010313B1F8D15E
:100240000020704701387047002D06BF354603383F
:10025000073815F0010F07D1013015F4807F02BF78
:10026000013015F4C03F0130F0BC0138704700BFC9
:1002700053B94AB9002908BF00281CBF4FF0FF310D
:100280004FF0FF3000F07AB9ADF1080C6DE904CE03
:1002900000F006F8DDF804E0DDE9022304B0704761
:1002A0002DE9F0478C460D460446089E002B51D19F
:1002B0008A4217466DD9B2FA82FEBEF1000F0BD00A
:1002C000CEF1200C01FA0EF520FA0CFC02FA0EF722
:1002D0004CEA050C00FA0EF44FEA174A250CBCFB59
:1002E000FAF81FFA87F90AFB18CC45EA0C4508FB17
:1002F00009F3AB420AD9ED1908F1FF3280F02381EE
:10030000AB4240F22081A8F102083D44ED1AA4B2AC
:10031000B5FBFAF00AFB105544EA054400FB09F965
:10032000A14509D9E41900F1FF3380F00A81A14504
:1003300040F2078102383C44A4EB090440EA08403B
:100340000021002E61D024FA0EF400233460736083
:10035000BDE8F0878B4207D9002E54D0002186E8F3
:1003600021000846BDE8F087B3FA83F1002940F088
:100370008E80AB4202D3824200F2FA80841A65EB8F
:1003800003050120AC46002E3FD086E81010BDE8E2
:10039000F08712B90127B7FBF2F7B7FA87FEBEF173
:1003A000000F34D1EB1B3A0C1FFA87FC0121B3FB81
:1003B000F2F8250C02FB183345EA03450CFB08F361
:1003C000AB4207D9ED1908F1FF3002D2AB4200F27F
:1003D000D1808046ED1AA3B2B5FBF2F002FB1055B6
:1003E00043EA05440CFB00FCA44507D9E41900F1DD
:1003F000FF3302D2A44500F2B8801846A4EB0C04E7
:1004000040EA08409DE731463046BDE8F087CEF12E
:10041000200405FA0EF307FA0EF720FA04F83A0C56
:1004200025FA04F448EA0308B4FBF2F14FEA184550
:1004300002FB11441FFA87FC45EA044501FB0CF35B
:10044000AB4200FA0EF409D9ED1901F1FF3080F04A
:100450008A80AB4240F2878002393D44EB1A1FFA92
:1004600088F5B3FBF2F002FB103345EA034500FBCD
:100470000CF3AB4207D9ED1900F1FF386FD2AB4254
:100480006DD902383D44EB1A40EA01418FE7C1F1D2
:10049000200722FA07F88B4005FA01F448EA030323
:1004A00020FA07FE4FEA134CFD404EEA040EB5FB5E
:1004B000FCF94FEA1E440CFB19551FFA83F844EA75
:1004C000054509FB08F4AC4202FA01F200FA01FA10
:1004D00008D9ED1809F1FF3043D2AC4241D9A9F156
:1004E00002091D442D1B1FFA8EFEB5FBFCF00CFB10
:1004F00010554EEA054400FB08F8A04507D9E4185A
:1005000000F1FF3529D2A04527D902381C4440EA22
:100510000940A4EB0804A0FB02894C45C6464D46A1
:1005200015D312D056B1BAEB0E0364EB050404FAEE
:1005300007F7CB401F43CC40376074600021BDE813
:10054000F0871846F8E69046E0E6C245EAD2B8EBF6
:10055000020E69EB03050138E4E72846D7E7404679
:1005600091E78146BEE7014678E702383C4445E71B
:10057000084608E7A8F102083D442BE7704700BF92
:1005800038B5184B01221A7001F05AF9164BB0FB1E
:10059000F3F0164B1880164BDA6822F08072DA609E
:1005A000DA6842F08072DA60124B1A6822F00102B7
:1005B0001A601A68002042F001021A60586000BFF9
:1005C00000BF00BF5B685BB90B4D0C4C2A4629216C
:1005D000204601F0D7FB4FF4FA7000F045FDF5E737
:1005E00038BD00BF8E00002040420F008C0000206C
:1005F000F0ED00E0001000E0542C0008662C00082C
:1006000030B595B03022002108A801F0B3FB0021DD
:10061000142203A801F0AEFB0024214B01941A6CB4
:1006200042F080521A641B6C03F080530193019BCB
:100630001C4B02941A6842F480421A601B6803F44F
:1006400080430293029B032308934FF48033099362
:1006500001230B9310230C934FF480030225A8224F
:100660000F9308A804231192109313930E951295DB
:1006700000F050FE0F2303934FF4A053069305217F
:100680004FF4805303A807930495059401F03EF8B6
:1006900022462146204600F0BFFF15B030BD00BF06
:1006A000003802400070004080B58AB000F0B0FC15
:1006B000FFF7A6FF142200210DEB020001F05AFB08
:1006C0000024444B01941A6B434842F080021A63A1
:1006D0001A6B02F080020192019A02941A6B42F0A6
:1006E00004021A631A6B02F004020292029A039443
:1006F0001A6B42F001021A631A6B02F001020392B4
:10070000039A04941A6B42F002021A631B6B03F003
:100710000203049322460321049B00F0F5FD2246C8
:1007200018212E4800F0F0FD0125032305A92A48D1
:10073000059306950794089400F006FD182305A973
:1007400026480593022606950794089400F0FCFCC1
:1007500005A94FF4807321480593069607940894E1
:10076000099400F0F1FC1E481E4B84604FF482791E
:1007700080E808024FF4007838230A27C361C46078
:1007800004614461C0F81880046244628462C762F4
:1007900001F0C6F81448154B846080E80802302345
:1007A000C361C46004614461C0F81880046244629B
:1007B0008462C76201F0B4F8284600F0B7F9304609
:1007C00000F0B4F9012000F095FA1321012000F0A7
:1007D00041FAF7E7003802400008024000000240FA
:1007E00050010020003001409C00002000380040F3
:1007F00010B586B00022012804468DF80F108DF840
:10080000172005D002281ED09DF8170006B010BD95
:100810001021194800F078FD642322460DF10F01E4
:10082000164801F0BAF8642300930DF117020DF198
:100830000F012346114801F058F90F4822461021B4
:1008400000F062FDE0E701460D4800F05DFD642325
:1008500001220DF10F010B4801F09FF86423009372
:100860000DF117020DF10F010123064801F03DF9CA
:10087000012221460248E3E7000002405001002027
:10088000000802409C00002070B586B0002641F0B0
:100890002001012804468DF80F208DF816608DF890
:1008A000171005D0022859D09DF8160006B070BD6B
:1008B00032461021534800F027FD642322460DF1F3
:1008C00017015148642501F068F8642322460DF1B0
:1008D00017014D4801F061F823460DF116020DF1A4
:1008E0000F010095484801F000F923460DF116026A
:1008F0000DF10F010095444801F0F7F82246102150
:10090000404800F001FD324610213E4800F0FCFC5A
:100910002B4622460DF117013B4801F03EF82B46CD
:1009200022460DF11701384801F037F823460DF142
:1009300016020DF10F010095334801F0D6F80DF1C4
:1009400016020DF10F01009523462F4801F0CDF856
:100950002C482246102100F0D7FCA5E7014632467C
:100960002A4800F0D1FC642301220DF11701284828
:10097000642501F012F8642301220DF117012448C7
:1009800001F00BF801230DF116020DF10F01009596
:100990001F4801F0AAF801230DF116020DF10F0115
:1009A00000951B4801F0A1F801222146174800F0EC
:1009B000ABFC32462146154800F0A6FC2B4601222E
:1009C0000DF11701124800F0E8FF2B4601220DF14E
:1009D00017010F4800F0E1FF01230DF116020DF1A0
:1009E0000F0100950A4801F080F80DF116020DF193
:1009F0000F0100950123064801F077F801222146F6
:100A00000248A8E700000240500100200008024010
:100A10009C0000201FB501284FF0000204468DF80D
:100A20000F2005D002281CD09DF80F0004B010BD87
:100A30001021174800F068FC64232246E221154883
:100A400000F0ABFF642300930DF10F02E221234677
:100A5000104801F04AF80E482246102100F054FCDC
:100A6000E2E701460C4800F04FFC64230122E2213A
:100A70000A4800F092FF642300930DF10F02E22177
:100A80000123064801F031F8012221460248E5E73A
:100A90000000024050010020000802409C0000209D
:100AA0001FB501284FF0000204468DF80F2005D035
:100AB00002281CD09DF80F0004B010BD102117486B
:100AC00000F022FC64232246E121154800F065FF76
:100AD000642300930DF10F02E1212346104801F039
:100AE00004F80E482246102100F00EFCE2E7014611
:100AF0000C4800F009FC64230122E1210A4800F0BF
:100B00004CFF642300930DF10F02E12101230648FD
:100B100000F0EBFF012221460248E5E70000024019
:100B200050010020000802409C000020012810B560
:100B3000044603D002282FD0002010BD0246102109
:100B40002D4800F0E1FB002208212B4800F0DCFBDF
:100B50004F2204212046FFF797FE06221146204629
:100B6000FFF792FE0C2200212046FFF78DFE0022A7
:100B70001C212046FFF788FE702207212046FFF740
:100B800083FE2A2205212046FFF77EFE2046FFF73E
:100B900041FF2046FFF784FF01220221174800F0A1
:100BA000B3FB00220121154800F0AEFB4F220421C7
:100BB0000220FFF769FE062211460220FFF764FEBD
:100BC0000C2200210220FFF75FFE00221C210220E0
:100BD000FFF75AFE702207210220FFF755FE2A2256
:100BE00005210220FFF750FE0220FFF713FF02202D
:100BF000FFF756FFA0E700BF0000024000080240D8
:100C000010B586B00022012804468DF80F108DF82B
:100C1000172017D110210D4800F076FB23466422DF
:100C2000A0210B4800F0B9FE0DF10F020DF11701E4
:100C300000946423064800F058FF22461021034820
:100C400000F062FB9DF8170006B010BD00000240E6
:100C500050010020012838B50D4624D10222002180
:100C6000FFF712FE114B1B7896240BB9FFF788FC97
:100C70000F4A104B1288596854435A68521AA242BC
:100C8000FBD329460120FFF7BBFF01460A4801F0CC
:100C900079F801220821094800F036FB00220821DA
:100CA000064800F031FB002038BD00BF8E00002058
:100CB0008C000020001000E0802C000800000240A2
:100CC000094910B50023012440FA03F212F0010291
:100CD00014BFCC54CA540133082BF5D1034B044A3A
:100CE0001A60002010BD00BFA8010020F400002001
:100CF000AF01002010B504461D4801F0B7F81721D8
:100D00002046FFF775FDFFF7DBFF17212046194C42
:100D1000FFF76EFDFFF7D4FF2378012B0CBF1648B9
:100D2000164801F0A3F86378012B0CBF144815484E
:100D300001F09CF8144801F099F82379012B0CBFBD
:100D40001248134801F092F86379012B0CBF114847
:100D5000114801F08BF8A379012B0CBF0F48104804
:100D600001F084F80F4801F081F8002010BD00BFA9
:100D7000852C0008A8010020A12C0008B82C000830
:100D8000CE2C0008E42C0008FB2C00080E2D0008D7
:100D9000252D00083B2D0008512D0008682D000866
:100DA000842D0008A02D000882B00C4B002100917A
:100DB0005A6C42F480425A645A6C02F480420092A7
:100DC000009A01911A6C42F080521A641B6C03F075
:100DD00080530193019B02B0704700BF003802406E
:100DE000F0B514228BB0044600210DEB020000F098
:100DF000C1FF23682F4A934223D12F4B2F48002154
:100E000000915A6C42F480525A645A6C02F4805237
:100E10000092009A01911A6B42F001021A631B6B57
:100E200003F001030193019BE02305930223069342
:100E3000032308930523099305A900F085F90BB056
:100E4000F0BD1F4A9342FAD11B4B1E480024029466
:100E50001A6C42F480421A641A6C02F480420292C4
:100E6000029A03941A6B42F004021A631A6B02F09E
:100E700004020392039A04941A6B42F002021A636A
:100E80001B6B03F002030493049B02270C2303262D
:100E9000052505A9059306970896099500F054F9CC
:100EA0004FF480630593069707940896099505A962
:100EB0000548C2E70030014000380240000002400F
:100EC0000038004000080240000402407047FEE77E
:100ED000FEE7FEE7FEE770477047704700F0B2B8E4
:100EE00070B50E4615460C46A31B9D4201DC2846F4
:100EF00070BDAFF3008004F8010BF5E710B50023D7
:100F00004FF06044934201DB104610BDD4F8800ED0
:100F1000C00703D5D4F8000EC00702D40133F1E7AF
:100F200000BF20680028FBD0C85C2070F6E70000F6
:100F300008B50A4B1968024609B9094919601868C9
:100F4000694602448A4206D900F0EAFE0C23036097
:100F50004FF0FF3008BD1A6008BD00BF90000020B0
:100F6000B80100204FF0FF3070474FF400534B6042
:100F70000020704701207047002070470F49D1F8CA
:100F8000883043F47003C1F888300D4B1A68002094
:100F900042F001021A6098601A6822F0847222F40A
:100FA00080321A60074A5A601A6822F480221A6056
:100FB000D8604FF000638B60704700BF00ED00E029
:100FC000003802401030002438B50E4A0E4B05465A
:100FD00018784FF47A73B3FBF0F31068B0FBF3F0BA
:100FE00000F09CF8044658B90F2D09D8024629464E
:100FF0004FF0FF3000F05EF8044B20461D6038BD16
:10100000012038BD0000002004000020080000205E
:1010100008B50B4B1A6842F400721A601A6842F461
:1010200080621A601A6842F480721A60032000F02D
:101030002FF80020FFF7C8FFFFF7B6FE002008BD1D
:10104000003C0240034A044B11681B780B441360B8
:10105000704700BFB001002004000020014B186859
:10106000704700BFB001002038B50446FFF7F6FF17
:10107000631C1CBF054B1B78054618BFE418FFF71F
:10108000EDFF401B8442FAD838BD00BF04000020A9
:10109000074AD36823F4E0631B041B0C43F0BF63CF
:1010A000000243F4003300F4E0600343D360704770
:1010B00000ED00E0174B30B5DC68C4F30224C4F146
:1010C0000703251D042B28BF0423062D4FF001051F
:1010D00005FA03F303F1FF338CBF033C00241940EE
:1010E000A14005FA04F4013C2240002842EA010232
:1010F0004FEA0212ADBF00F1604000F00F00064B56
:1011000000F56140B5BFD2B2D2B21A5480F80023C4
:1011100030BD00BF00ED00E014ED00E00138B0F19B
:10112000807F0AD2064B074A5860F02182F82310CC
:101130000020072298601A6070470120704700BFA6
:1011400010E000E000ED00E02DE9F04F85B00B6805
:10115000DFF8AC81684ADFF8AC91019300234FF0CF
:10116000010E019C0EFA03FE0EEA0406B64540F09D
:10117000AE804C6824F01007022F16D14FEAD30A34
:1011800000EB8A0A03F0070BDAF820504FEA8B0BCA
:101190004FF00F0C0CFA0BFC25EA0C0C0D6905FA4C
:1011A0000BF545EA0C05CAF820504FEA430A03251F
:1011B000D0F800B005FA0AF5ED4304F0030C0BEA91
:1011C000050B0CFA0AFC013F4CEA0B0C012FC0F88E
:1011D00000C011D8876807EA050BCF6807FA0AFC38
:1011E0004CEA0B078760476827EA0E0EC4F3001726
:1011F0009F4047EA0E074760C7683D408F6807FA7F
:101200000AF73D43C560E50061D54FF0000BCDF80E
:101210000CB0D8F84470394D47F48047C8F8447092
:10122000D8F8447007F480470397039F23F003071F
:1012300007F1804707F59C3703F0030CD7F808A0A7
:101240004FEA8C0C4FF00F0E0EFA0CFEA8422AEA61
:101250000E0E43D005F58065A84241D005F58065A6
:10126000A8423FD005F58065A8423DD005F58065D0
:10127000A8423BD048453BD005F50065A84239D08F
:1012800005F58065A84214BF0825072505FA0CF569
:1012900045EA0E05BD601568F74314F4803F0CBFA6
:1012A0003D4035431560556814F4003F0CBF3D4088
:1012B00035435560956814F4801F0CBF3D4035439D
:1012C0009560D568A40254BF3D403543D5600133D5
:1012D000102B7FF444AF05B0BDE8F08F5D46D5E735
:1012E0000125D3E70225D1E70325CFE70425CDE784
:1012F0000525CBE70625C9E7003C01400000024078
:1013000000380240001402400AB1816170470904AC
:10131000FBE700002DE9F341044618B9012002B0B3
:10132000BDE8F0810368DD0710D42368980758D41E
:1013300023681A0700F19A8023685B0700F1B880E0
:10134000A269002A40F019810020E8E7A64B9A68BC
:1013500002F00C02042A07D09A6802F00C02082A54
:101360000AD15B68590207D59F4B1B689A03DCD5ED
:101370006368002BD9D1D1E763689B4DB3F5803FFB
:1013800011D12B6843F480332B60FFF767FE964D35
:1013900006462B689B03C8D4FFF760FE801B6428B9
:1013A000F7D90320BBE7B3F5A02F04D12B6843F492
:1013B00080232B60E5E72A6822F480322A602A68BD
:1013C00022F480222A60002BDFD1FFF747FE064679
:1013D0002B689F03A9D5FFF741FE801B6428F7D92E
:1013E000DFE7814B9A6812F00C0F07D09A6802F081
:1013F0000C02082A11D15B685E020ED47A4B1A687F
:10140000950702D5E268012A88D11A68216922F07D
:10141000F80242EAC1021A608AE7E268734BB2B18D
:1014200001221A60FFF71AFE6F4D06462B689807D7
:1014300007D52B68226923F0F80343EAC2032B6027
:1014400076E7FFF70BFE801B0228EFD9A9E71A60A9
:10145000FFF704FE644D06462B6899077FF568AFD9
:10146000FFF7FCFD801B0228F6D99AE76269604B02
:101470007AB101221A60FFF7F1FD5B4D06466B6FF2
:101480009F073FF559AFFFF7E9FD801B0228F6D90A
:1014900087E71A60FFF7E2FD534D06466B6F98072A
:1014A0007FF54AAFFFF7DAFD801B0228F6D978E70F
:1014B0004D4B1A6C12F0805228D101921A6C42F0F6
:1014C00080521A641B6C03F080530193019B012628
:1014D000484D2B68D9051BD5A368434D012B27D157
:1014E0002B6F43F001032B67FFF7B8FD3E4D074616
:1014F00041F288382B6F9B0739D5002E3FF420AF7F
:10150000394A136C23F08053136419E70026DFE790
:101510002B6843F480732B60FFF7A0FD07462B6810
:10152000DA05D9D4FFF79AFDC01B0228F7D938E7AE
:10153000052B04D12B6F43F004032B67D0E72A6FF0
:1015400022F001022A672A6F22F004022A67002B88
:10155000CAD1FFF783FD41F2883807462B6F980701
:10156000CBD5FFF77BFDC01B4045F7D919E7FFF747
:1015700075FDC01B4045BDD913E71B4DAB6803F09B
:101580000C03082B3FF4CAAE1B4E0023022A336023
:1015900034D1FFF763FD07462B6899011ED4226AF8
:1015A000E3691343626A43EA8213E26A43EA02632D
:1015B000A26A0D4C5208013A43EA02436B600123D0
:1015C0003360FFF74BFD054623689A013FF5BCAE3B
:1015D000FFF744FD401B0228F6D9E2E6FFF73EFD87
:1015E000C01B0228D8D9DCE6003802400000474280
:1015F000800E47420070004060004742FFF72EFD1A
:1016000004462B689B017FF59FAEFFF727FD001B6B
:101610000228F6D9C5E600BF70B50D4688B016465B
:10162000204CF0B90190236B43F001032363236B3B
:10163000059003F001030193019B07904FF4807321
:1016400003930223049303A9032317480693FFF788
:101650007BFDA16821F0EC6131432943A16008B012
:1016600070BD00230293226B104842F004022263F3
:10167000226B059302F004020292029A07934FF440
:10168000007203920222049203A903220692FFF73A
:101690005BFDA36845EAC60123F078450D43A560CC
:1016A000DDE700BF003802400000024000080240B1
:1016B000134908B58B6803F00C03042B03D0082BE7
:1016C00003D0104808BD104808BD4A684B684968F7
:1016D00013F4800314BF0C480A48C1F3881118BFE3
:1016E000002302F03F02A1FB0001FEF7C1FD044B05
:1016F0005B68C3F3014301335B00B0FBF3F008BD4B
:10170000003802400024F40000127A002DE9F04174
:101710000D46044610B90120BDE8F081444B1A681B
:1017200002F00F028A4228D321688F072DD4C80700
:1017300040D43F4B1A6802F00F02954266D32268EC
:1017400051076CD4130707D53A4A2169936823F4EB
:10175000604343EAC1039360FFF7AAFF354B364A63
:101760009B68C3F30313D35CD840344B186000204C
:10177000FFF72AFC0020BDE8F081CAB21A701B688E
:1017800003F00F039942C6D1CEE72A4B11F0040FA4
:101790001EBF9A6842F4E0529A600E0742BF9A68F0
:1017A00042F460429A609A68A06822F0F002024314
:1017B0009A60BCE762681F4B012A1DD11B6813F4B5
:1017C000003FA8D01B4EB36823F003031343B3605C
:1017D000FFF744FC41F288380746B368626803F0BB
:1017E0000C03B3EB820FA4D0FFF738FCC01B4045BD
:1017F000F3D90320BDE8F081911E01291B6802D8AE
:1018000013F0007FDDE713F0020FDAE7EAB21A7097
:101810001B6803F00F039D427FF47DAF8FE70549FE
:10182000E0688B6823F4E05303438B608AE700BFD2
:10183000003C024000380240AC2D000800000020AF
:10184000014B1868704700BF00000020F8B504463F
:101850000E4615461F4621688A6836EA020301D003
:101860000020F8BD6B1CF7D0FFF7F8FBC01B8542CA
:10187000F1D823685A6822F0E0025A606268B2F533
:10188000827F0AD1A268B2F5004F02D0B2F5806F14
:1018900003D11A6822F040021A60A26AB2F5005F12
:1018A00007D11A6822F400521A601A6842F40052F2
:1018B0001A60012384F85130002384F8503003204B
:1018C000F8BD000073B51346134A144E15684268FC
:1018D000B5FBF6F64FF47A757543B2F5827F044690
:1018E00001950DD10A468021FFF7B0FF10B9002005
:1018F00002B070BD636D43F0200363650320F7E71A
:10190000019B002BF3D0019B013B019323689B6853
:101910001B06F5D4EBE700BF0000002000366E0187
:1019200010B50446002836D00023836290F8513069
:1019300003F0FF021BB980F85020FFF751FA21682D
:10194000A068A269022384F851300B6823F0400399
:101950000B6063680343E0680343206903436069E5
:101960000343E0690343206A0343A06A034302F48C
:10197000007003430B60120C636A02F004021A4306
:101980004A60CB6923F40063CB61002001236065CA
:1019900084F8513010BD012010BD2DE9F3411E46E1
:1019A00090F85030012B04460D46904600F09B8085
:1019B000012380F85030FFF751FB074694F851009F
:1019C000C0B2012840F08D80002D5DD0B8F1000F2D
:1019D0005AD0032384F851300020A3686065A063C7
:1019E000A4F83680A087E0876064206420682563BF
:1019F000B3F5004F08BF0368A4F8348004BF43F474
:101A00008043036003685B065EBF036843F04003E6
:101A10000360E368B3F5006F63683ED113B1B8F1BA
:101A2000010F07D135F8023BC3602563E38E013B0C
:101A30009BB2E386E38E9BB2A3B93A463146204679
:101A4000FFF740FF002849D1A36833B90193236809
:101A5000DA6801929B680193019B606D003018BFAA
:101A6000012011E022689368980705D5236B33F8AD
:101A7000021BD1602363D9E7FFF7F0FAC01BB04225
:101A8000D8D3711CD6D00320012384F85130002311
:101A900084F8503002B0BDE8F08113B1B8F1010F05
:101AA00008D12B780373236B01332363E38E013B4F
:101AB0009BB2E386E38E9BB2002BBED023689A686C
:101AC000920703D5226B12781A73ECE7FFF7C6FA78
:101AD000C01B8642EED8731CECD0D4E7202363658C
:101AE000B2E70220D0E70220D4E72DE9F7431E46F3
:101AF00090F850300A9F012B04460D46914600F0A5
:101B0000E280012380F85030FFF7A8FA94F85130B2
:101B10006168DBB2012B80460AD0B1F5827F40F0CC
:101B2000D080A068002840F0CC80042B40F0C98011
:101B3000002D00F0C480B9F1000F00F0C080002E2D
:101B400000F0BD8094F85130C4F83890042B1CBFCD
:101B5000052384F85130002363652364636423689C
:101B6000E687E6861A68A687500658BF1A68256376
:101B700058BF42F04002A68658BF1A60E268B2F52C
:101B8000006F58D109B1012E07D135F8022BDA6068
:101B9000E38E2563013B9BB2E3860125E38E9BB276
:101BA000ABB9E38F9BB293B9424639462046FFF763
:101BB00089FE002840F08180A368002B32D1236881
:101BC0000190DA6801929B680193019B2AE02268E8
:101BD000936899070DD5E38E9BB253B14DB1236B3A
:101BE00033F8021BD1602363E38E013B9BB2E38693
:101BF00000259368DB070CD5E38F9BB24BB1A36B39
:101C0000D26823F8022BA363E38F013B9BB2E387E7
:101C10000125FFF723FAA0EB08008742BED87E1CFF
:101C2000BCD00320012384F85130002384F85030C5
:101C300003B0BDE8F08309B1012E08D12A781A73E8
:101C4000236B01332363E38E013B9BB2E3860125C3
:101C5000E38E9BB21BB9E38F9BB2002BA4D022680A
:101C6000936898070ED5E38E9BB25BB155B1236B99
:101C70001B781373236B01332363E38E013B9BB209
:101C8000E386002522689368D9070DD5E38F9BB2C0
:101C900053B1A36BD2681A70A36B0133A363E38FB4
:101CA000013B9BB2E3870125FFF7D8F9A0EB0800C1
:101CB0008742CDD87B1CCBD0B3E7202363650120BE
:101CC000B0E70220AEE70220B2E70000DFF834D030
:101CD000002103E00C4B5B58435004310B480C4B84
:101CE00042189A42F6D30B4A02E0002342F8043B22
:101CF000094B9A42F9D3FFF741F900F017F8FEF7C4
:101D0000D3FC704700000220642E00080000002071
:101D10007000002070000020B8010020FEE70000E5
:101D2000014B1868704700BF0C00002070B50D4EC5
:101D30000D4CA41BA4100025A54209D10B4E0C4C40
:101D400000F07CFFA41BA4100025A54205D170BDA6
:101D500056F8253098470135EEE756F82530984774
:101D60000135F2E75C2E00085C2E00085C2E0008AE
:101D7000602E000802440346934200D1704703F8E6
:101D8000011BF9E70FB40A4B13B51C6824B1A36912
:101D900013B9204600F024FA05AB049AA168019318
:101DA000204600F0E1FB02B0BDE8104004B07047EF
:101DB0000C00002070B50E46054618B183690BB9BA
:101DC00000F00EFAAB69AC6813B9284600F008FAC7
:101DD000234B9C4217D16C68A3891B071DD523692F
:101DE000DBB1013EA36816F8011F013BA360E9B90E
:101DF000002B2EDA22460A21284600F03FF8013057
:101E000011D00A2070BD174B9C4201D1AC68E3E7AA
:101E1000154B9C4208BFEC68DEE72146284600F0DF
:101E20007FF80028DDD04FF0FF3070BD002B04DAC2
:101E3000A269934206DB0A2904D023685A1C226057
:101E40001970CFE72246284600F018F80130C9D1B2
:101E5000E9E723680A205A1C2260187070BD00BF91
:101E6000E02D0008002E0008C02D0008024B01469E
:101E70001868FFF79FBF00BF0C000020F8B50E46A2
:101E80001446054618B183690BB900F0A9F9214B36
:101E90009C422AD16C68A369A360A3891A072ED536
:101EA000236963B323692068C01A6369F6B2984254
:101EB000374604DB2146284600F028F928BBA368F2
:101EC000013BA36023685A1C22601E7063690130C5
:101ED000984204D0A389DB0719D50A2E17D12146D1
:101EE000284600F013F990B10FE00B4B9C4201D152
:101EF000AC68D0E7094B9C4208BFEC68CBE72146B1
:101F0000284600F00DF80028CCD04FF0FF373846B7
:101F1000F8BD00BFE02D0008002E0008C02D00080D
:101F2000324B70B51D6806460C4625B1AB6913B936
:101F3000284600F055F92E4B9C420FD16C68B4F93D
:101F40000C309AB215072CD4D00611D40922326075
:101F500043F04003A3814FF0FF3070BD254B9C42FE
:101F600001D1AC68EBE7244B9C4208BFEC68E6E784
:101F7000510712D5616B41B104F14403994202D07B
:101F8000304600F01BFA00236363A38923F0240387
:101F9000A3810023636023692360A38943F00803BE
:101FA000A38123694BB9A38903F42073B3F5007FA0
:101FB00003D02146304600F0C1F9A28912F0010396
:101FC0000CD00023A36063695B42A361236953B90A
:101FD000B4F90C3013F08000BAD170BD920758BF2D
:101FE0006369A360F2E70020F7E700BF0C00002060
:101FF000E02D0008002E0008C02D00088A892DE978
:10200000F041054610070C465AD44B68002B05DCFE
:102010000B6C002B02DC0020BDE8F081E66A002E8C
:10202000F9D0002312F480522F682B6033D0606DFA
:10203000A3895A0705D56368C01A636B0BB1236C7B
:10204000C01A00230246E66A216A2846B047431CAC
:10205000A38906D129681D294BD82B4ACA40D60727
:1020600047D500226260D9042269226004D5421C4F
:1020700001D12B6803B96065616B2F600029CAD05C
:1020800004F14403994202D0284600F097F9002059
:102090006063BDE8F081216A01232846B047411CF6
:1020A000C6D12B68002BC3D01D2B01D0162B01D11C
:1020B0002F60B0E7A38943F04003A381BDE8F0811E
:1020C0000F69002FA7D093070E6808BF4B690F60F8
:1020D00018BF0023A6EB07088B60B8F1000F9ADD4C
:1020E00043463A46216AA66A2846B047002807DCDC
:1020F000A38943F04003A3814FF0FF30BDE8F08196
:102100000744A8EB0008E8E70100402038B50B6958
:1021100005460C46DBB118B183690BB900F060F8D5
:102120000C4B9C4209D16C68B4F90C307BB1214650
:102130002846BDE83840FFF761BF074B9C4201D1FC
:10214000AC68F1E7054B9C4208BFEC68ECE7002067
:1021500038BD00BFE02D0008002E0008C02D00088B
:10216000014900F0A9B800BF0D210008002310B5F7
:10217000044603604360836081814366C2810361DA
:1021800043618361194608225C30FFF7F3FD054B7C
:102190006362054BA362054BE362054B2462236334
:1021A00010BD00BFE12A0008032B00083B2B0008EC
:1021B0005F2B000870B54A1E682555430E4605F191
:1021C000740100F049F9044640B1002180E8420062
:1021D0000C30A06005F16802FFF7CCFD204670BD11
:1021E000836910B5044633BB8364C3640365124B33
:1021F000124A1B688262984204BF0123836100F087
:102200001FF86060204600F01BF8A060204600F038
:1022100017F80022E06004216068FFF7A7FF0122A1
:102220000921A068FFF7A2FF02221221E068FFF750
:102230009DFF0123A36110BDBC2D00086121000892
:10224000F8B51C4B1E68B369074613B93046FFF753
:10225000C7FF4836B4687368013B03D5336833B1B0
:102260003668F7E7B4F90C506DB16834F4E704212F
:102270003846FFF79FFF30600028F1D10C233B6008
:1022800004462046F8BD4FF6FF73E3810123A38186
:1022900065662560A560656025616561A5610822A8
:1022A000294604F15C00FFF765FD6563A563A5643D
:1022B000E564E6E7BC2D00082DE9F8438046894631
:1022C00000F14804002614B93046BDE8F883A5683B
:1022D0006768013F01D52468F5E7AB89012B07D971
:1022E000B5F90E30013303D029464046C8470643AE
:1022F0006835EEE770B50E46B1F90E10002990B0C2
:1023000014461D4607DA00232B60B3891A0610D441
:102310004FF480630EE001AA00F048FC0028F2DBD5
:10232000029A02F47042A2F500535A425A412A60BE
:10233000EEE740230020236010B070BD8B8973B599
:102340009D0706460C4607D504F147032360236129
:102350000123636102B070BD01AB6A46FFF7CAFF9B
:1023600000990546304600F077F848B9B4F90C30CA
:102370009A05EFD423F0030343F00203A381E3E7BC
:102380000D4BB362A389206043F08003A381009BBF
:102390006361019B20615BB1B4F90E10304600F01F
:1023A00017FC28B1A38923F0030343F00103A381A1
:1023B000A3891D43A581CDE76121000838B50546F5
:1023C000002945D051F8043C0C1F002BB8BFE4187D
:1023D00000F020FC1F4A1368104633B96360146094
:1023E0002846BDE8384000F016BCA3420CD921684D
:1023F0006218934204BF1A685B68636004BF521896
:1024000022600460ECE713465A680AB1A242FAD986
:1024100019685818A0420BD120680144581882420C
:102420001960DDD1106852685A6001441960D7E71D
:1024300002D90C232B60D3E7206821188A4204BFFD
:1024400011685268626004BF091821605C60C7E7C8
:1024500038BD00BF9400002070B5CD1C25F00305E9
:1024600008350C2D38BF0C25002D064601DBA9428E
:1024700003D90C233360002070BD00F0CBFB234A4E
:102480001468214691B9224C23681BB9304600F0EC
:1024900017FB20602946304600F012FB431C26D172
:1024A0000C233360304600F0B6FBE4E70B685B1B9F
:1024B0001AD40B2B0FD90B60CD50CC18304600F03E
:1024C000AAFB04F10B00231D20F00700C31A1BD048
:1024D0005A42E25070BD8C420DBF63684B68636026
:1024E000136018BF0C46E9E70C464968CAE7C41CEC
:1024F00024F00304A04205D0211A304600F0E0FA8F
:102500000130CDD02560D9E770BD00BF9400002018
:10251000980000209368013B002B10B4936009DA07
:102520009469A34202DBCBB20A2B03D15DF8044BC2
:10253000FFF7A4BC1368581C10601970C8B25DF88E
:10254000044B7047F8B506460F461446D518AC4202
:1025500001D1002007E03A4614F8011B3046FFF78E
:10256000D9FF431CF3D1F8BD2DE9F04F9DB00C46C7
:1025700017460393064618B183690BB9FFF730FE7F
:102580007C4B9C4257D17468A38918075DD5236999
:10259000002B5AD00023099320238DF829303023B3
:1025A0008DF82A304FF0010BB846454615F8013B2F
:1025B000002B55D1B8EB070A0BD053463A462146BB
:1025C0003046FFF7BFFF013000F0C480099B534441
:1025D000099398F80030002B00F0BC8000234FF0E6
:1025E000FF3204930793059206938DF853301A93A4
:1025F000052229786048FDF7EBFD05F10108049BF1
:10260000002831D1D90644BF20228DF853201A0763
:1026100044BF2B228DF853202A782A2A2CD0079ADF
:1026200000210A20A846013598F80030303B092BDC
:102630006DD971B326E0514B9C4201D1B468A3E738
:102640004F4B9C4208BFF4689EE721463046FFF797
:1026500067FC00289ED04FF0FF301DB0BDE8F08F22
:10266000252BA7D0A846A0E7434A801A0BFA00F012
:10267000184304904546BBE7039A111D1268039165
:10268000002A01DB079204E0524243F00203079262
:10269000049398F800302E2B10D198F801302A2B93
:1026A00008F1010137D1039B1A1D1B680392002B0F
:1026B000B8BF4FF0FF3308F102080593314D98F889
:1026C000001003222846FDF783FD40B14023401B44
:1026D00003FA00F0049B0343049308F1010898F8FF
:1026E000001029488DF82810062208F10107FDF78F
:1026F0006FFD002834D0254B03BB039B073323F029
:10270000070308330393099B4B4409934CE700FBF1
:102710000232012186E70023059318460A258846E0
:10272000013198F80020303A092A03D9002BC5D08E
:102730000590C3E705FB00200123F0E703AB0093FE
:102740002246134B04A93046AFF30080B0F1FF3F9F
:102750008146D8D1A3895B063FF57DAF09987CE718
:1027600003AB009322460A4B04A9304600F088F8D8
:10277000ECE700BFE02D0008202E0008002E000826
:10278000C02D0008262E00082A2E00080000000098
:10279000452500082DE9F04791461F468A680B69D8
:1027A000DDF820809342B8BF1346C9F8003091F895
:1027B000432006460C4612B10133C9F800302368A5
:1027C000990642BFD9F800300233C9F800302568B5
:1027D00015F0060507D104F1190AE368D9F80020BD
:1027E0009B1A9D4229DB94F843302268003318BFBE
:1027F000012392062ED404F1430239463046C047E5
:10280000013021D02368E568D9F8002003F00603E1
:10281000042B08BFAD1AA36822690CBF25EAE57531
:1028200000259342C4BF9B1AED184FF000091A34DB
:102830004D451BD10020BDE8F087012352463946A3
:102840003046C047013003D14FF0FF30BDE8F0877C
:102850000135C2E7E1185A1C302081F843002244B8
:1028600094F8451082F843100233C4E7012322464E
:1028700039463046C0470130E6D009F10109D7E7B3
:102880002DE9F04317460A7E85B06E2A9846064623
:102890000C460C9B01F1430E00F0BC801AD8632A51
:1028A0002ED00AD8002A00F0C880582A00F08A806A
:1028B00004F1420584F842202AE0642A01D0692A02
:1028C000F6D121681A6811F0800F23D0111D19600C
:1028D000136827E0732A00F0B48008D86F2A2AD042
:1028E000702AE5D10A6842F020020A6003E0752AE6
:1028F00021D0782ADCD1782284F845206E4964E022
:102900001A6801F14205111D1960136884F84230FC
:102910000123A3E011F0400F02F104011960D7D0A8
:10292000B2F90030002B03DA2D225B4284F84320F9
:1029300062490A2217E02068196810F0800F03D05E
:10294000081D18600B6806E010F0400F01F104004C
:102950001860F7D00B8859496F2A14BF0A22082241
:10296000002084F843006568A560002DC0F29C80BB
:10297000206820F004002060002B3FD1002D40F0A3
:1029800095807546082A0BD12368DA0708D5236994
:1029900062689A42DEBF302305F8013C05F1FF353D
:1029A000AEEB05032361CDF800803B4603AA214628
:1029B0003046FFF7EFFE013055D14FF0FF3005B044
:1029C000BDE8F08381F845203C492268186812F080
:1029D000800F00F104051D6001D0036802E0550678
:1029E000FBD50388D00744BF42F0200222601BB908
:1029F000226822F0200222601022B1E77546B3FB64
:102A0000F2F002FB1033CB5C05F8013D03460028D1
:102A1000F5D1B7E708681A68496910F0800F04D04B
:102A2000101D18601368196007E010F0400F02F1E4
:102A3000040018601368F6D01980002323617546DE
:102A4000B1E71A68111D19601568626800212846EF
:102A5000FDF7BEFB08B1401B606063682361002383
:102A600084F843309FE723692A4639463046C047F9
:102A70000130A2D023689B0707D5002504F119096E
:102A8000E368039A9B1A9D4205DBE068039B98422A
:102A9000B8BF184693E701234A4639463046C04737
:102AA00001308AD00135EBE7002BA7D10B7884F8F1
:102AB000423004F1420565E7422E0008312E00083D
:102AC00038B5064C0023054608462360FEF730FA69
:102AD000431C02D1236803B12B6038BDB401002030
:102AE00010B50C46B1F90E1000F096F80028ABBFF7
:102AF000636DA3891B1823F48053ACBF6365A38166
:102B000010BD2DE9F0411F468B89DB0505460C46BB
:102B1000164605D502230022B1F90E1000F068F820
:102B2000A389B4F90E1023F48053A38132463B46A7
:102B30002846BDE8F04100F017B810B50C46B1F9D1
:102B40000E1000F055F8431CA38915BF606523F4EF
:102B5000805343F48053A38118BFA38110BDB1F902
:102B60000E1000F013B8000038B5074C05460846B3
:102B70001146002222601A46FEF7C0F9431C02D11A
:102B8000236803B12B6038BDB401002038B5064C72
:102B90000023054608462360FEF7E4F9431C02D1F2
:102BA000236803B12B6038BDB401002038B5074C51
:102BB00000230546084611462360FEF7D6F9431C5C
:102BC00002D1236803B12B6038BD00BFB4010020DF
:102BD00038B5064C0023054608462360FEF7CAF9BF
:102BE000431C02D1236803B12B6038BDB40100201F
:102BF00038B5074C054608461146002222601A46A1
:102C0000FEF7BAF9431C02D1236803B12B6038BD2B
:102C1000B40100207047704738B5074C0546084698
:102C20001146002222601A46FEF75AF9431C02D1CF
:102C3000236803B12B6038BDB4010020F8B500BF94
:102C4000F8BC08BC9E467047F8B500BFF8BC08BC8D
:042C50009E467047E5
:102C54002E2E5C436F72655C5372635C4457542E32
:102C640063004552524F52203D3E4C696E6520250B
:102C7400642C2046696C652025730A002564200AAB
:102C8400000A5F5F5F4649464F5F535441545553B2
:102C94002052656769737465725F5F5F0031295202
:102CA40058204649464F20697320656D7074792019
:102CB4002831290031295258204649464F2069734A
:102CC4002066756C6C202830290032295258204621
:102CD40049464F2069732066756C6C2028312900A1
:102CE40032295258204649464F20697320656D7039
:102CF40074792028302900322920616E6420332918
:102D040020726573657276656400342954582046D0
:102D140049464F20697320656D70747920283129E4
:102D24000034295458204649464F2069732066755B
:102D34006C6C202830290035295458204649464FC8
:102D44002069732066756C6C20283129003529545C
:102D540058204649464F20697320656D7074792068
:102D640028302900362952657573652064617461C1
:102D7400207061636B6574206269742028312900B6
:102D840036295265757365206461746120706163CE
:102D94006B657420626974202830290037292072F9
:102DA4006573657276656400000000000000000031
:102DB40001020304060708091000002000000000B7
:102DC40000000000000000000000000000000000FF
:102DD40000000000000000000000000000000000EF
:102DE40000000000000000000000000000000000DF
:102DF40000000000000000000000000000000000CF
:102E040000000000000000000000000000000000BE
:102E1400000000000000000000000000232D302B03
:102E24002000686C4C0065666745464700303132C7
:102E3400333435363738394142434445460030311E
:102E4400323334353637383961626364656600007D
:082E54004CD4FF7F01000000D7
:042E5C00B5010008B4
:042E600091010008D4
:102E64000024F40001000000100000001000002005
:102E740000000000E02D0008002E0008C02D00080E
:102E8400000000000000000000000000000000003E
:102E9400000000000000000000000000000000002E
:102EA400000000000000000000000000000000001E
:102EB400000000000000000000000000000000000E
:102EC40000000000000000000000000000000000FE
:0400000508001CCD06
:00000001FF
